:020000040800F2
:100000000020002079390008C5380008C9380008E8
:10001000CD380008D1380008D538000800000000AD
:10002000000000000000000000000000D9380008B7
:10003000DD38000800000000E1380008E53800085D
:10004000C1390008C1390008C1390008C1390008A8
:10005000C1390008C1390008C1390008C139000898
:10006000C1390008C1390008C1390008C139000888
:10007000C1390008C1390008C1390008C139000878
:10008000C1390008C1390008C1390008000000006A
:10009000000000000000000000000000C13900085E
:1000A000C1390008C1390008C1390008C139000848
:1000B000F5380008C139000801390008C1390008C5
:1000C000C13900080000000000000000C13900082C
:1000D000C1390008C1390008C1390008C139000818
:1000E000C1390008C1390008C1390008000000000A
:1000F0000000000000000000000000000000000000
:1001000000000000000000000000000000000000EF
:1001100000000000000000000D3900081939000837
:1001200000000000000000000000000000000000CF
:1001300000000000000000000000000000000000BF
:1001400000000000000000000000000000000000AF
:10015000000000000000000000000000000000009F
:10016000000000000000000000000000000000008F
:10017000000000000000000000000000000000007F
:10018000000000000000000000000000000000006F
:10019000000000000000000000000000000000005F
:1001A000000000000000000000000000000000004F
:1001B000000000000000000000000000000000003F
:1001C0000000000000000000000000005FF808F1DF
:1001D00010B5054C237833B9044B13B10448AFF381
:1001E00000800123237010BD780000200000000073
:1001F0003C41000808B5034B1BB103490348AFF36A
:10020000008008BD000000007C0000203C41000888
:1002100081F0004102E000BF83F0004330B54FEAB7
:1002200041044FEA430594EA050F08BF90EA020F24
:100230001FBF54EA000C55EA020C7FEA645C7FEAB7
:10024000655C00F0E2804FEA5454D4EB5555B8BFDA
:100250006D420CDD2C4480EA020281EA030382EA4B
:10026000000083EA010180EA020281EA0303362DDD
:1002700088BF30BD11F0004F4FEA01314FF4801CB0
:100280004CEA113102D0404261EB410113F0004FC2
:100290004FEA03334CEA133302D0524263EB430379
:1002A00094EA050F00F0A780A4F10104D5F1200E17
:1002B0000DDB02FA0EFC22FA05F2801841F1000172
:1002C00003FA0EF2801843FA05F359410EE0A5F146
:1002D00020050EF1200E012A03FA0EFC28BF4CF077
:1002E000020C43FA05F3C01851EBE37101F000452D
:1002F00007D54FF0000EDCF1000C7EEB00006EEB3A
:100300000101B1F5801F1BD3B1F5001F0CD34908C3
:100310005FEA30004FEA3C0C04F101044FEA44521A
:1003200012F5800F80F09A80BCF1004F08BF5FEAA1
:10033000500C50F1000041EB045141EA050130BD81
:100340005FEA4C0C404141EB010111F4801FA4F124
:100350000104E9D191F0000F04BF01460020B1FA79
:1003600081F308BF2033A3F10B03B3F120020CDAB1
:100370000C3208DD02F1140CC2F10C0201FA0CF08F
:1003800021FA02F10CE002F11402D8BFC2F1200CF4
:1003900001FA02F120FA0CFCDCBF41EA0C019040AA
:1003A000E41AA2BF01EB0451294330BD6FEA0404F3
:1003B0001F3C1CDA0C340EDC04F11404C4F12002DE
:1003C00020FA04F001FA02F340EA030021FA04F3F0
:1003D00045EA030130BDC4F10C04C4F1200220FA47
:1003E00002F001FA04F340EA0300294630BD21FA85
:1003F00004F0294630BD94F0000F83F4801306BF4B
:1004000081F480110134013D4EE77FEA645C18BF3E
:100410007FEA655C29D094EA050F08BF90EA020FD5
:1004200005D054EA000C04BF1946104630BD91EACD
:10043000030F1EBF0021002030BD5FEA545C05D1D0
:100440004000494128BF41F0004130BD14F580040F
:100450003CBF01F5801130BD01F0004545F0FE4183
:1004600041F470014FF0000030BD7FEA645C1ABFB8
:10047000194610467FEA655C1CBF0B46024650EAEF
:10048000013406BF52EA033591EA030F41F400211B
:1004900030BD00BF90F0000F04BF0021704730B5A1
:1004A0004FF4806404F132044FF000054FF0000176
:1004B00050E700BF90F0000F04BF0021704730B537
:1004C0004FF4806404F1320410F0004548BF40420C
:1004D0004FF000013EE700BF42004FEAE2014FEA61
:1004E00031014FEA02701FBF12F07F4393F07F4F3C
:1004F00081F06051704732F07F4208BF704793F03F
:100500007F4F04BF41F40021704730B54FF4607451
:1005100001F0004521F000411CE700BF50EA010254
:1005200008BF704730B54FF000050AE050EA0102FD
:1005300008BF704730B511F0004502D5404261EB6D
:1005400041014FF4806404F132045FEA915C3FF4AE
:10055000D8AE4FF003025FEADC0C18BF03325FEA4B
:10056000DC0C18BF033202EBDC02C2F1200300FAFC
:1005700003FC20FA02F001FA03FE40EA0E0021FA21
:1005800002F11444BDE600BF70B54FF0FF0C4CF40F
:10059000E06C1CEA11541DBF1CEA135594EA0C0FC1
:1005A00095EA0C0F00F0DEF82C4481EA030621EAFC
:1005B0004C5123EA4C5350EA013518BF52EA033537
:1005C00041F4801143F4801338D0A0FB02CE4FF0E9
:1005D0000005E1FB02E506F00042E0FB03E54FF019
:1005E0000006E1FB03569CF0000F18BF4EF0010E11
:1005F000A4F1FF04B6F5007F64F5407404D25FEA0D
:100600004E0E6D4146EB060642EAC62141EA5551BF
:100610004FEAC52040EA5E504FEACE2EB4F1FD0C01
:1006200088BFBCF5E06F1ED8BEF1004F08BF5FEA7F
:10063000500E50F1000041EB045170BD06F0004631
:1006400046EA010140EA020081EA0301B4EB5C04DE
:10065000C2BFD4EB0C0541EA045170BD41F48011D6
:100660004FF0000E013C00F3AB8014F1360FDEBFFB
:10067000002001F0004170BDC4F10004203C35DAD7
:100680000C341BDC04F11404C4F1200500FA05F35A
:1006900020FA04F001FA05F240EA020001F00042FB
:1006A00021F0004110EBD37021FA04F642EB060171
:1006B0005EEA430E08BF20EAD37070BDC4F10C049B
:1006C000C4F1200500FA04F320FA05F001FA04F25F
:1006D00040EA020001F0004110EBD37041F100014B
:1006E0005EEA430E08BF20EAD37070BDC4F1200556
:1006F00000FA05F24EEA020E20FA04F301FA05F2BE
:1007000043EA020321FA04F001F0004121FA04F265
:1007100020EA020000EBD3705EEA430E08BF20EA35
:10072000D37070BD94F0000F0FD101F0004640006F
:1007300041EB010111F4801F08BF013CF7D041EAF1
:10074000060195F0000F18BF704703F000465200F5
:1007500043EB030313F4801F08BF013DF7D043EAC6
:100760000603704794EA0C0F0CEA135518BF95EA7C
:100770000C0F0CD050EA410618BF52EA4306D1D103
:1007800081EA030101F000414FF0000070BD50EA22
:10079000410606BF1046194652EA430619D094EAAC
:1007A0000C0F02D150EA013613D195EA0C0F05D196
:1007B00052EA03361CBF104619460AD181EA0301EA
:1007C00001F0004141F0FE4141F470014FF00000A2
:1007D00070BD41F0FE4141F4780170BD70B54FF03D
:1007E000FF0C4CF4E06C1CEA11541DBF1CEA1355BD
:1007F00094EA0C0F95EA0C0F00F0A7F8A4EB05049F
:1008000081EA030E52EA03354FEA013100F0888095
:100810004FEA03334FF0805545EA131343EA12635E
:100820004FEA022245EA111545EA10654FEA002613
:100830000EF000419D4208BF964244F1FD0404F5CC
:10084000407402D25B084FEA3202B61A65EB030528
:100850005B084FEA32024FF480104FF4002CB6EBE5
:10086000020E75EB030E22BFB61A754640EA0C0065
:100870005B084FEA3202B6EB020E75EB030E22BFA5
:10088000B61A754640EA5C005B084FEA3202B6EBE6
:10089000020E75EB030E22BFB61A754640EA9C00A5
:1008A0005B084FEA3202B6EB020E75EB030E22BF75
:1008B000B61A754640EADC0055EA060E18D04FEA33
:1008C000051545EA16754FEA06164FEAC30343EAD3
:1008D00052734FEAC2025FEA1C1CC0D111F4801FA0
:1008E0000BD141EA00014FF000004FF0004CB6E799
:1008F00011F4801F04BF01430020B4F1FD0C88BF38
:10090000BCF5E06F3FF6AFAEB5EB030C04BFB6EB42
:10091000020C5FEA500C50F1000041EB045170BD35
:100920000EF0004E4EEA113114EB5C04C2BFD4EB62
:100930000C0541EA045170BD41F480114FF0000EE6
:10094000013C90E645EA060E8DE60CEA135594EA62
:100950000C0F08BF95EA0C0F3FF43BAF94EA0C0F65
:100960000AD150EA01347FF434AF95EA0C0F7FF4DA
:1009700025AF104619462CE795EA0C0F06D152EA2E
:1009800003353FF4FDAE1046194622E750EA410612
:1009900018BF52EA43067FF4C5AE50EA41047FF423
:1009A0000DAF52EA43057FF4EBAE12E74FF0FF3C88
:1009B00006E000BF4FF0010C02E000BF4FF0010C59
:1009C0004DF804CD4FEA410C7FEA6C5C4FEA430CD2
:1009D00018BF7FEA6C5C1BD001B050EA410C0CBF21
:1009E00052EA430C91EA030F02BF90EA020F002083
:1009F000704710F1000F91EA030F58BF994208BFEA
:100A000090422CBFD8176FEAE37040F001007047A6
:100A10004FEA410C7FEA6C5C02D150EA013C07D1FD
:100A20004FEA430C7FEA6C5CD6D152EA033CD3D048
:100A30005DF8040B704700BF8446104662468C4642
:100A40001946634600E000BF01B5FFF7B7FF002875
:100A500048BF10F1000F01BD4DF808EDFFF7F4FF9E
:100A60000CBF012000205DF808FB00BF4DF808ED29
:100A7000FFF7EAFF34BF012000205DF808FB00BF4C
:100A80004DF808EDFFF7E0FF94BF012000205DF86E
:100A900008FB00BF4DF808EDFFF7CEFF94BF012023
:100AA00000205DF808FB00BF4DF808EDFFF7C4FF1C
:100AB00034BF012000205DF808FB00BF4FEA410C65
:100AC0007FEA6C5C02D150EA013C0AD14FEA430C48
:100AD0007FEA6C5C02D152EA033C02D14FF0000085
:100AE00070474FF0010070474FEA410212F50012C3
:100AF00015D211D56FF47873B3EB625212D94FEA65
:100B0000C12343F0004343EA505311F0004F23FA4E
:100B100002F018BF404270474FF00000704750EAA3
:100B2000013005D111F0004008BF6FF00040704760
:100B30004FF00000704700BF4FEA4102B2F1E043BE
:100B400024BFB3F5001CDCF1FE5C0DD901F0004CB4
:100B50004FEAC0024CEA5070B2F1004F40EB830004
:100B600008BF20F00100704711F0804F21D113F130
:100B70003872BCBF01F00040704741F480114FEA69
:100B80005252C2F11802C2F1200C10FA0CF320FAF2
:100B900002F018BF40F001004FEAC1234FEAD3230F
:100BA00003FA0CFC40EA0C0023FA02F34FEA430379
:100BB000CCE77FEA625307D150EA01331EBF4FF002
:100BC000FE4040F44000704701F0004040F0FE401D
:100BD00040F40000704700BF80F0004002E000BF1A
:100BE00081F0004142001FBF5FEA410392EA030F18
:100BF0007FEA226C7FEA236C6AD04FEA1262D2EB62
:100C00001363C1BFD218414048404140B8BF5B4266
:100C1000192B88BF704710F0004F40F4000020F0FF
:100C20007F4018BF404211F0004F41F4000121F015
:100C30007F4118BF494292EA030F3FD0A2F101025F
:100C400041FA03FC10EB0C00C3F1200301FA03F19D
:100C500000F0004302D5494260EB4000B0F5000FC0
:100C600013D3B0F1807F06D340084FEA310102F17F
:100C70000102FE2A51D2B1F1004F40EBC25008BF31
:100C800020F0010040EA03007047490040EB0000FB
:100C900010F4000FA2F10102EDD1B0FA80FCACF12A
:100CA000080CB2EB0C0200FA0CF0AABF00EBC25029
:100CB00052421843BCBFD0401843704792F0000F17
:100CC00081F4000106BF80F400000132013BB5E76A
:100CD0004FEA41037FEA226C18BF7FEA236C21D0E0
:100CE00092EA030F04D092F0000F08BF0846704745
:100CF00090EA010F1CBF0020704712F07F4F04D113
:100D0000400028BF40F00040704712F100723CBF25
:100D100000F50000704700F0004343F0FE4040F44F
:100D2000000070477FEA226216BF08467FEA23630D
:100D30000146420206BF5FEA412390EA010F40F4F8
:100D4000800070474FF0000304E000BF10F0004344
:100D500048BF40425FEA000C08BF704743F096432B
:100D600001464FF000001CE050EA010208BF704746
:100D70004FF000030AE000BF50EA010208BF7047CD
:100D800011F0004302D5404261EB41015FEA010CE2
:100D900002BF84460146002043F0B64308BFA3F1DA
:100DA0008053A3F50003BCFA8CF2083AA3EBC253BC
:100DB00010DB01FA02FC634400FA02FCC2F12002DB
:100DC000BCF1004F20FA02F243EB020008BF20F012
:100DD0000100704702F1200201FA02FCC2F1200278
:100DE00050EA4C0021FA02F243EB020008BF20EA6D
:100DF000DC7070474FF0FF0C1CEAD0521EBF1CEA9B
:100E0000D15392EA0C0F93EA0C0F6FD01A4480EA88
:100E1000010C400218BF5FEA41211ED04FF0006371
:100E200043EA501043EA5111A0FB01310CF000409D
:100E3000B1F5000F3EBF490041EAD3715B0040EAC3
:100E4000010062F17F02FD2A1DD8B3F1004F40EB93
:100E5000C25008BF20F00100704790F0000F0CF066
:100E6000004C08BF49024CEA502040EA51207F3A2A
:100E7000C2BFD2F1FF0340EAC250704740F4000005
:100E80004FF00003013A5DDC12F1190FDCBF00F0F6
:100E900000407047C2F10002410021FA02F1C2F1A4
:100EA000200200FA02FC5FEA310040F1000053EA40
:100EB0004C0308BF20EADC70704792F0000F00F08E
:100EC000004C02BF400010F4000F013AF9D040EA94
:100ED0000C0093F0000F01F0004C02BF490011F428
:100EE000000F013BF9D041EA0C018FE70CEAD15326
:100EF00092EA0C0F18BF93EA0C0F0AD030F0004CA6
:100F000018BF31F0004CD8D180EA010000F0004059
:100F1000704790F0000F17BF90F0004F084691F017
:100F2000000F91F0004F14D092EA0C0F01D1420251
:100F30000FD193EA0C0F03D14B0218BF084608D11A
:100F400080EA010000F0004040F0FE4040F4000064
:100F5000704740F0FE4040F4400070474FF0FF0CF7
:100F60001CEAD0521EBF1CEAD15392EA0C0F93EA3E
:100F70000C0F69D0A2EB030280EA010C49024FEA90
:100F8000402037D04FF0805343EA111143EA101349
:100F90000CF000408B4238BF5B0042F17D024FF401
:100FA000000C8B4224BF5B1A40EA0C00B3EB510FDC
:100FB00024BFA3EB510340EA5C00B3EB910F24BFC5
:100FC000A3EB910340EA9C00B3EBD10F24BFA3EB4A
:100FD000D10340EADC001B0118BF5FEA1C1CE0D112
:100FE000FD2A3FF650AF8B4240EBC25008BF20F0C5
:100FF000010070470CF0004C4CEA50207F32C2BF19
:10100000D2F1FF0340EAC250704740F400004FF0B5
:101010000003013A37E792F0000F00F0004C02BFE6
:10102000400010F4000F013AF9D040EA0C0093F0B0
:10103000000F01F0004C02BF490011F4000F013B0A
:10104000F9D041EA0C0195E70CEAD15392EA0C0F72
:1010500008D142027FF47DAF93EA0C0F7FF470AFAA
:10106000084676E793EA0C0F04D14B023FF44CAFED
:1010700008466EE730F0004C18BF31F0004CCAD182
:1010800030F000427FF45CAF31F000437FF43CAFBE
:101090005FE700BF4FEA4002B2F1FE4F0FD34FF0BF
:1010A0009E03B3EB12620DD94FEA002343F00043D5
:1010B00010F0004F23FA02F018BF404270474FF083
:1010C0000000704712F1610F01D1420205D110F00A
:1010D000004008BF6FF0004070474FF000007047BD
:1010E0004FF47A7370B50D4D0D4A29781268B3FB31
:1010F000F1F30646B2FBF3F000F096F808B90F2EB4
:1011000001D9012070BD0446024631464FF0FF3040
:1011100000F048F86E60204670BD00BF000000205F
:101120000800002008B5032000F02AF80020FFF78F
:10113000D7FF02F081FA002008BD00BF034A044B2C
:1011400011681B780B441360704700BFAC0000208F
:1011500000000020014B1868704700BFAC00002061
:10116000064A08B51378834205D0034650681370C9
:10117000FFF7B6FF08BD002008BD00BF000000203B
:101180004FF6FF01064A0002D36800F4E0600B400E
:1011900043F0BF6343F400330343D360704700BFA1
:1011A00000ED00E0184B30B4DB68C3F30223C3F159
:1011B0000705042D03F1040428BF0425062C19D9C2
:1011C0004FF0FF34033B9C4022EA04044FF0FF320F
:1011D000AA4021EA020101FA03F222431201002887
:1011E000D2B20ADB00F1604000F5614080F80023D4
:1011F00030BC704700242346E8E7044B00F00F00A2
:1012000003441A7630BC704700ED00E0FCEC00E0CF
:10121000012300F01F01034A40098B4042F82030AF
:10122000704700BF00E100E00138B0F1807F0DD2CF
:1012300030B4F02500220721054B064C586084F895
:101240002350104630BC9A601960704701207047E7
:1012500010E000E000ED00E0044A042813680CBF31
:1012600043F0040323F004031360704710E000E030
:10127000704700BF08B5FFF7FBFF08BD2DE9F04F31
:101280004FF0000883B04446DFF8C0C1694EDFF874
:10129000C0E102E00134102C78D001230A68A34099
:1012A0001A409342F6D14D68122D00F09C807ED8F2
:1012B000022D00F0948074D9032D00F08D80112D43
:1012C00002D1CB6803F10408FF2A62D88246036882
:1012D000A5004FF00F0909FA05FB23EA0B0308FAF2
:1012E00005F52B43CAF80030D1F804A01AF0805F4E
:1012F000D0D0514F24F00305BB6905F1804543F080
:101300000103BB61BB6905F5803503F0010301935F
:1013100004F0030B019B4FEA8B0BAB6809FA0BF946
:10132000604523EA09030FD0704560D0434FB842AF
:1013300078D0434FB8420CBF4FF003094FF0040977
:1013400009FA0BFB43EA0B03AB6033681AF4803FE6
:1013500014BF13439343336073681AF4003F14BF00
:10136000134393437360B3681AF4801F14BF13438D
:101370009343B360F3681AF4001F04F1010414BF2F
:101380001A4323EA0202102CF26086D103B0BDE8B2
:10139000F08F04F18045083D4368AD0000F1040A78
:1013A00097E7A5B1012D8FD1D1F80C808CE7254F9F
:1013B000BD420CD029D9244FBD4208D007F5803753
:1013C000BD4204D0DFF88C904D457FF47DAF8D6831
:1013D000A5B94FF0040877E74FF0000874E7CB6831
:1013E00003F1080870E7CB6803F10C086CE74FF0D5
:1013F000010909FA0BFB43EA0B03A5E7012D0CBF1A
:10140000036143614FF008085EE7DFF84C904D45FB
:10141000DDD009F580394D457FF456AF8D68002D3C
:10142000D7D0EBE74FF0020909FA0BFB43EA0B03B5
:101430008AE700BF00040140001002400010014094
:10144000001401400000211000003110000801408C
:10145000000C0140000022100000111002B9090424
:10146000016170472DE9F0421F4605460068894634
:101470000168164641F480610160026882B042F45E
:101480008072089C0260611C49D14369DA07FCD56F
:101490005FFA89F909F0FE030361621C03D04BE097
:1014A000436959055AD443699B07F9D50023019331
:1014B0004369019383690193019B611C03D07EE022
:1014C00043695B0565D443691A06F9D5012F40F0DD
:1014D0009180F6B20661671C03D098E04369590514
:1014E00057D443691E06F9D5036843F4807303603B
:1014F000631C40F0AC804369DF07FCD549F001096B
:10150000C0F81090621C03D0C2E043695B0525D48B
:101510004369DB4313F00203F7D1184636E0436911
:10152000DB07B5D4002C5AD0FFF714FE099BC01A74
:10153000844254D32868A6E743699A07B6D443691E
:1015400059050BD4002C00F09080FFF703FE099B97
:10155000C01A8442C0F0898028689EE700226FF498
:10156000806604242021036843F40073036046610D
:101570002C6485F83C202A6385F83D102B6C042BE5
:1015800003D1012002B0BDE8F082032002B0BDE823
:10159000F08200236FF480640421202244612964D6
:1015A00085F83C302B6385F83D202B6C042BECD167
:1015B0002A680120136843F400731360E6E7436967
:1015C000190683D443695B05E3D4002C55D0FFF79B
:1015D000C1FD099BC01A84424FD328686DE70023E0
:1015E00020222B6385F83C3085F83D20032085F8C8
:1015F0003E30CBE7330A0361631C03D017E0436935
:101600005905C6D443691F063FF563AFF7E7436941
:101610001A063FF569AF43695B05BAD46CB3FFF7AF
:1016200099FD099BC01A844227D3286853E7436970
:101630001A063FF54EAF43695A05AAD4ECB1FFF73D
:1016400089FD099BC01A844217D32868D4E74369EF
:10165000DE073FF553AF002CC1D0FFF77BFD099BA0
:10166000C01A8442BBD3286842E7002320222B63A0
:1016700085F83C3085F83D2080E7202100222B6C46
:1016800085F83C200B432B642A6385F83D108CE7DA
:101690004369DB4313F002033FF43FAF436959054D
:1016A0003FF55CAF002CE0D0FFF754FD099BC01A5A
:1016B0008442DAD3286825E700286CD090F83D30C2
:1016C00070B503F0FF020446002B5DD0242322688E
:1016D00084F83D30136823F00103136000F0D2FC5E
:1016E0006268364B9A422FD8354B984251D95300F5
:1016F000421EB2FBF3F233490132A1FB0030810CF0
:10170000C2F30B00042838BF042023684A1C596028
:101710001A620022D4E9071620253143D861D4E9A2
:10172000036019603043D4E9051631439860D960ED
:101730001968104641F001011960226484F83D5097
:10174000226384F83E2070BD1F4B984221D94FF48C
:1017500096711C4D1D4BA5FB0065AD0C01FB05F101
:10176000A3FB0131A6682368890901315D60013856
:10177000196296B902EB4202B0FBF2F00130C0F3FD
:101780000B00C0B90120C4E780F83C2001F0A4FFA1
:101790009CE7012070BD0120704702EB820202EB42
:1017A0008202B0FBF2F00130C0F30B000028E9D058
:1017B00040F44040ADE740F40040AAE7A0860100B5
:1017C0007F841E0083DE1B43FF083D00D34D621063
:1017D0002DE9F04F044687B09A460F469046BDF873
:1017E0004490129DFFF7B6FC94F83D30202B04D0B6
:1017F0000227384607B0BDE8F08F064604E0FFF741
:10180000A9FC801B192851D822689369DB4313F087
:10181000020BF4D094F83C30012BE9D0012113687D
:1018200084F83C10D80702D413680B4313604FF0C0
:10183000220C40204FF0000B1168534621F4006148
:1018400011609F4A84F83DC084F83E00C4F840B05F
:10185000A4F82A90E262608D3946109F4246676282
:10186000CDE9005620852046FFF7FCFD0746B0B9BC
:10187000238D2268002B3ED1029053690293936915
:101880000293029B136843F4007313600023202229
:1018900084F83C3084F83D2084F83E30A9E7236C7E
:1018A00084F83CB0042B24D10127A2E7022720238F
:1018B0003846C4F830B084F83CB084F83D3084F841
:1018C0003EB007B0BDE8F08F23685A69510600F1B9
:1018D000AF805A69D10600F1088120220021236CD3
:1018E00084F83C101343236484F83D20236C202BA0
:1018F000DAD103277DE7012B78D0022B00F0078196
:10190000116841F4806111600590516905919269F7
:101910000592059A002BB9D0032B7AD8012B00F041
:10192000CD80022B49D0691C226840F0A180536908
:101930005B07FCD5136823F48063136072B62268DA
:10194000636A1269591C61621A70638D228D013BB2
:10195000013A9BB222856385691C226840F0A18010
:1019600053695B07FCD51368616A43F40073136025
:1019700013694A1C62620B70638D228D013B9BB21E
:10198000013A6385228562B62268636A1269591C2E
:1019900061621A70628D238D013A013B92B29BB253
:1019A00062852385B6E7536958070CD4002D6AD0A9
:1019B000FFF7D0FB801B854265D3691C2268F2D1FA
:1019C00053695B07FCD572B62368616A1A68481CC4
:1019D00042F400721A601B6960620B70638D228D85
:1019E000013B013A9BB222856385CCE7136823F45F
:1019F0008063136072B6236803905A6903929A69F0
:101A00000392039A1A6842F400721A6062B6238D38
:101A100080E74DB958E75A69D00666D4FFF79AFBBC
:101A2000801B8542FFF459AF23685A695206F2D5EC
:101A3000626A1B69511C61621370628D2168013AF0
:101A400092B2238D62854A69013B9BB2520723857E
:101A50007FF560AF636A0A69591C61621A70238D51
:101A6000628D013B013A9BB292B22385628551E7B8
:101A7000536958073FF55EAF2DB1FFF76BFB801B35
:101A80008542BFF450AF032700232022384623634A
:101A900084F83C3084F83D2084F83E3007B0BDE83F
:101AA000F08F536958073FF55EAF002DEBD0FFF77D
:101AB00051FB801B8542BFF44FAFE4E75DB920E0E6
:101AC0000000FFFF5A69D2060FD4FFF743FB801BCB
:101AD0008542FFF402AF23685A695106F2D5626A63
:101AE0001B69511C61621370B9E700226FF010008E
:101AF00020215861226484F83C20226384F83D1040
:101B0000F4E623685A6950067FF5E3AEE7E7136809
:101B100043F40063136072B6236804905A69049218
:101B20009A690492049A1A6822F480621A6062B672
:101B3000238DEFE62DE9F041036882B0DD0704460E
:101B400030D5AB494A6802F00C02042A00F0DA8072
:101B50004A6802F00C02082A00F0D0806368B3F5EE
:101B6000803F00F00F81002B00F02781B3F5A02FFC
:101B700000F0B5819E4B1A6822F480321A601A6810
:101B800022F480221A60FFF7E5FA994D064605E037
:101B9000FFF7E0FA801B642800F20B812B689A03A0
:101BA000F6D523689F0728D5914A516811F00C0F8C
:101BB00000F0B680516801F00C01082900F0AC80FB
:101BC0002369002B00F0418101228A4B884D1A6065
:101BD000FFF7C0FA064605E0FFF7BCFA801B0228B3
:101BE00000F2E7802B689807F6D52B68626923F02E
:101BF000F80343EAC2032B6023681A0722D5A369BE
:101C0000002B00F0988001227B4B794D1A60FFF782
:101C1000A1FA064605E0FFF79DFA801B022800F2B4
:101C2000C8806B6A9B07F6D5744B754A1B68A2FB8C
:101C300003235B0A019300BF019B5A1E0192002BF4
:101C4000F9D123685D0739D5694BDA69D00040F1D5
:101C5000828000256B4B1A68D10540F19980E368BA
:101C6000012B0FD0002B00F0D180052B604B1A6A9E
:101C700000F0FC8022F001021A621A6A22F00402CB
:101C80001A6204E05A4A136A43F001031362FFF731
:101C900061FA574E804641F2883706E0FFF75AFA5C
:101CA000A0EB0800B84200F28480336A9B07F5D5A8
:101CB00025B14F4AD36923F08053D361E269CAB199
:101CC0004B4D696801F00C01082930D0022A4FF011
:101CD00000014D4A00F0D2801160FFF73BFA2C461C
:101CE000054604E0FFF736FA401B022861D8236856
:101CF0009B01F7D4002002B0BDE8F0814A68D00310
:101D00007FF52CAF3A4A126891037FF54BAF6268BA
:101D1000002A7FF447AF0AE05268D6033FF550AF80
:101D2000334A1268950721D52269012A1ED0012065
:101D300002B0BDE8F081304A2D4D1360FFF70AFA7A
:101D4000064604E0FFF706FA801B022831D86B6ACA
:101D50009F07F7D475E7DA69012542F08052DA610E
:101D6000DB6903F080530093009B73E720496069AF
:101D70000A6822F0F80242EAC0020A601A077FF5F8
:101D800061AF3CE71A4A136843F480331360FAE604
:101D90001A681E4642F480721A60FFF7DBF90746A4
:101DA0003368DA053FF55BAFFFF7D4F9C01B642851
:101DB000F6D9032002B0BDE8F08103F1804303F5BA
:101DC00004331A681D4622F480321A601A6822F41D
:101DD00080221A60FFF7BEF9064604E0FFF7BAF961
:101DE000801B6428E5D82B689B03F7D4D9E600BF95
:101DF00000100240000042428004424208000020DD
:101E0000D34D6210007000406000424203F18043F5
:101E100003F504331A6A1E4622F001021A621A6A96
:101E200041F2883822F004021A62FFF793F907465C
:101E300004E0FFF78FF9C01B4045BAD8336A980712
:101E4000F7D4002D3FF43AAF33E72B4A2B4D136004
:101E5000FFF780F9064604E0FFF77CF9801B0228B3
:101E6000A7D82B689907F7D42368C6E642F0040286
:101E70001A621A6A42F001021A6208E71160FFF75B
:101E800069F9064604E0FFF765F9801B022890D83F
:101E90002B689901F7D4226AB2F5803F05D1EB6A2D
:101EA000A16823F00F030B43EB620125134B606A1B
:101EB0005968024321F4741111480A435A600560BD
:101EC0001C46FFF747F9054605E0FFF743F9401BBD
:101ED00002283FF66EAF23689A01F6D50AE703F1B0
:101EE0008043A3F53C331A6842F480221A601A68D2
:101EF00042F480321A6046E600004242001002407E
:101F000060004242F0B5036889B09907044606D5DF
:101F1000524980684A6822F0F00202434A60DA07B8
:101F200026D560684D4B01281B6800F0858002288B
:101F300000F08A809D0740F18A80484D41F2883741
:101F40006B6823F0030318436860FFF703F96368C5
:101F50000646012B5DD0022B05D167E0FFF7FAF8AA
:101F6000801BB84276D86B6813F00C0FF6D123684B
:101F7000590706D53949E0684A6822F4E06202430D
:101F80004A601A0707D5354A2169536823F460531C
:101F900043EAC10353606D46314B03F110040FCB8C
:101FA00085E80F0094E80F0008AC04E90F002B4906
:101FB0004A6802F00C03042B16D0082B2FD108A876
:101FC000C2F38343034413F8200CD30338D5CA6A01
:101FD000244B02F00F0203FB00F308A90A4412F895
:101FE000102CB3FBF2F300E01E4B1C4A1E48526853
:101FF0001E49C2F30312825C0020D3400B60FFF73E
:102000006FF8002009B0F0BDFFF7A4F8801BB842BC
:1020100020D86B6803F00C03042BF5D1A7E7144B11
:10202000E3E7FFF797F8801BB84213D86B6803F01B
:102030000C03082BF5D19AE79F033FF57EAFE1E74C
:102040000C4B03FB00F3D0E79E013FF576AF012078
:1020500009B0F0BD032009B0F0BD00BF0010024080
:10206000584100080024F4007841000808000020CE
:1020700000127A0000093D00014B1868704700BF4C
:1020800008000020044B05495B68054AC3F302239E
:10209000CB5C1068D84070470010024088410008AF
:1020A00008000020044B05495B68054AC3F3C223BE
:1020B000CB5C1068D840704700100240884100088F
:1020C00008000020A0B390F83D3070B503F0FF0287
:1020D000044643B302232268354E84F83D30B242B1
:1020E0001368A569E068616824D0B2F1804F37D0E9
:1020F000A6F59436B24249D006F58066B24245D084
:1021000006F59C36B24219D006F58066B24215D06B
:1021100006F58066B24211D023F080032B43136092
:10212000D062916216E080F83C2001F0F9FAD1E724
:1021300001207047A66823F070033343266923F417
:102140004073334323F080032B431360D0629162CA
:102150006369136301230020536184F83D3070BD2F
:10216000A66823F070033343266923F44073334396
:1021700023F080032B431360D06291620D4B9A428F
:10218000E6D003F580639A42E4D1E1E7A66823F044
:1021900070033343266923F440733343064E23F020
:1021A00080032B43B2421360D0629162D0D0E5E746
:1021B000002C014000440140004001400368002021
:1021C000DA6842F00102DA601A6842F001021A602D
:1021D000704700BFA0B390F83D3070B503F0FF0228
:1021E000044643B302232268354E84F83D30B242A0
:1021F0001368A569E068616824D0B2F1804F37D0D8
:10220000A6F59436B24249D006F58066B24245D072
:1022100006F59C36B24219D006F58066B24215D05A
:1022200006F58066B24211D023F080032B43136081
:10223000D062916216E080F83C2001F0DFFAD1E72D
:1022400001207047A66823F070033343266923F406
:102250004073334323F080032B431360D0629162B9
:102260006369136301230020536184F83D3070BD1E
:10227000A66823F070033343266923F44073334385
:1022800023F080032B431360D06291620D4B9A427E
:10229000E6D003F580639A42E4D1E1E7A66823F033
:1022A00070033343266923F440733343064E23F00F
:1022B00080032B43B2421360D0629162D0D0E5E735
:1022C000002C0140004401400040014090F83C30A7
:1022D000012B00F01781F0B40223012480F83D3077
:1022E00080F83C400C2A45D8DFE802F0074444441B
:1022F00085444444B74444444D0003688E681D6AD5
:102300000F6825F001051D621A6A5D6822F002025D
:102310009C6932437C4E24F07304B34244EA0704C0
:102320000BD006F5A056B34207D006F58066B3423F
:1023300003D006F58066B3420BD1CE6822F00802C6
:10234000324325F44075D1E905673E4322F004028B
:1023500035434E685D609C615E631A629C690D69DD
:1023600044F008049C61996921F0040199619A691B
:102370002A439A610023F0BC012280F83C3080F8A7
:102380003D201846704703688E681D6A0F6825F463
:1023900080551D621A6A5D6822F40052DC6942EAC7
:1023A0000632594E24F4E644B34244EA072400F0CE
:1023B000A38006F5A056B34200F09E8006F5806625
:1023C000B34200F0998006F58066B34200F0948035
:1023D0004E685D60DC611E641A62DC690D6944F45C
:1023E0000064DC61D96921F48061D961DA6942EA6B
:1023F0000522DA61BEE703688E681D6A0F6825F062
:1024000010051D621C6A5D6824F020049A6944EA84
:1024100006143D4E22F4E642B34242EA07225CD063
:102420003A4EB34260D03A4EB3425DD006F5806674
:10243000B34259D04E685D609A619E631C629C698C
:102440000D6944F400649C61996921F4806199618B
:102450009A6942EA05229A618CE703688E681D6AD0
:102460000F6825F480751D621C6A5D6824F4007491
:10247000DA6944EA0624244E22F07302B34242EAA7
:1024800007021BD0214EB3421FD0214EB3421CD0B5
:1024900006F58066B34218D04E685D60DA61DE638F
:1024A0001C62DC690D6944F00804DC61D96921F023
:1024B0000401D961DA692A43DA615BE7CE6824F462
:1024C000006444EA062424F48064D1E9056725F415
:1024D00040553E4345EA0615DEE7CE6824F0800409
:1024E00044EA061424F04004D1E9056725F4406568
:1024F0003E4345EA86059DE74E6925F4804545EA59
:10250000861565E702207047002C0140004001401D
:102510000044014090F83C30012B67D00222F0B417
:102520000125036880F83D209A680C6822F47F42F8
:1025300022F07702402C80F83C509A6000F09380A3
:1025400018D9702C7FD02BD9B4F5805F76D0B4F534
:10255000005F1CD1D1E90152CC6899682A4342EA54
:10256000042221F47F410A439A609A6842F480422F
:102570009A600CE0102C42D02FD9202C38D0302C6F
:1025800005D19A6822F0700242F037029A60002367
:10259000F0BC012280F83C3080F83D20184670479E
:1025A000502C33D0602CF2D11C6A4D6824F01004FA
:1025B000CE681C6299691A6A21F4704122F0A00267
:1025C00042EA051241EA063199611A629A6822F0DC
:1025D000700242F067029A60D9E7002CD7D19A685E
:1025E00022F0700242F007029A60D0E702207047A2
:1025F0009A6822F0700242F027029A60C7E79A6850
:1026000022F0700242F017029A60C0E71D6A1E6A4B
:102610004C6826F00106CF681E629A6925F00A010F
:1026200022F0F00242EA071221439A6119629A6885
:1026300022F0700242F057029A60A8E79A6822F0EE
:1026400007029A60A3E7D1E90152CC6899682A434E
:1026500042EA042221F47F410A439A609A6842F0D8
:1026600077029A6093E71D6A1E6A4C6826F001069D
:10267000CF681E629A6925F00A0122F0F00242EA50
:10268000071221439A6119629A6822F0700242F09F
:1026900047029A607BE700BF704700BF704700BFEA
:1026A000704700BF704700BF036810B51A69044641
:1026B000910702D5DA6892075FD41A69500702D5EC
:1026C000DA68510746D41A69120702D5DA6810078A
:1026D0002ED41A69D20602D5DA68D00618D41A693F
:1026E000D10702D5DA68D2075DD41A69100602D57F
:1026F000DA6811065FD41A69520602D5DA68500604
:1027000061D41A69910602D5DA68920643D410BDE5
:102710006FF0100108221961DB69204613F4407F35
:10272000227764D0FFF7BAFF002223682277D6E72A
:102730006FF0080104221961DB69204699072277AE
:1027400052D1FFF7A9FF2046FFF7AAFF0022236816
:102750002277BEE76FF00401022219619B692046CF
:1027600013F4407F22773CD1FFF796FF2046FFF716
:1027700097FF002223682277A5E76FF0020101226C
:1027800019619B6902779B0725D0FFF787FF00221D
:102790002368227791E76FF020022046BDE81040C1
:1027A0001A6100F051B86FF0010220461A6100F082
:1027B000A3FC236899E76FF0800220461A6100F0BD
:1027C00045F8236897E76FF0400220461A61FFF74B
:1027D00069FF236895E7FFF75FFF2046FFF760FF7B
:1027E000D5E7FFF75BFFC4E7FFF758FFAEE7FFF75A
:1027F00053FF2046FFF754FF96E700BF90F83C30A8
:10280000012B1ED002460220F0B4002501261368D9
:1028100082F83D005C680F6824F070045C605868C2
:102820004C6838435860986820F080009860996838
:1028300028462143996082F83D6082F83C50F0BC04
:1028400070470220704700BF704700BF704700BF4D
:10285000002800F0F9802DE9F84390F8393004465B
:1028600003F0FF02002B00F0EA802422236884F8A2
:102870003920DA68E06822F40052DA601969A26847
:1028800021F44051014319612069D9686569024307
:10289000E06921F416412A4321F00C0102430A4366
:1028A000DA605A69A16922F440720A43B0F5004F18
:1028B0005A61A44A6CD0934200F00681FFF7E2FB14
:1028C000636800EB800000EB80009B00B0FBF3F33B
:1028D0009D4F4FF06408A7FB03235B091D01FFF721
:1028E000D1FB666800EB800000EB8000B600B0FB17
:1028F000F6F6FFF7C7FB626800EB8000930000EB81
:102900008000B0FBF3F3A7FB03235B0908FB136311
:102910001B013233A7FB03235B0903F0F006FFF72B
:10292000B1FB626800EB800000EB80009300B0FB1D
:10293000F3F9FFF7A7FB626800EB8000930000EB60
:102940008000B0FBF3F3A7FB03235B0908FB1393A1
:102950001B013233A7FB0323C3F343133343226822
:102960002B449360002520211369284623F49043CB
:102970001361536923F02A035361D36843F400536E
:10298000D360E56384F8391084F83A10BDE8F88321
:1029900093425BD0FFF776FB636800EB800000EBAF
:1029A00080005B00B0FBF3F3674F4FF06408A7FBB8
:1029B00003235B091E01FFF765FB656800EB8000E0
:1029C00000EB80006D00B0FBF5F5FFF75BFB626884
:1029D00000EB8000530000EB8000B0FBF3F3A7FB9B
:1029E00003235B0908FB1353DB003233A7FB0323EC
:1029F0001B0903F4F875FFF745FB626800EB8000E4
:102A000000EB80005300B0FBF3F9FFF73BFB62687B
:102A100000EB8000530000EB8000B0FBF3F3A7FB5A
:102A200003235B0908FB1393DB003233A7FB03236B
:102A3000C3F34213334422682B44936092E780F837
:102A4000382000F011FF10E701207047FFF72AFB44
:102A5000636800EB800000EB80005B00B0FBF3F3E9
:102A6000394F4FF06408A7FB03235B091E01FFF7F2
:102A700019FB656800EB800000EB80006D00B0FB87
:102A8000F5F5FFF70FFB626800EB8000530000EBE9
:102A90008000B0FBF3F3A7FB03235B0908FB135390
:102AA000DB003233A7FB03231B0903F4F875FFF7A0
:102AB000F9FA626800EB8000530000EB8000B0FB85
:102AC000F3F9FFF7EFFAA2E7FFF7ECFA636800EB20
:102AD000800000EB80009B00B0FBF3F31A4F4FF037
:102AE0006408A7FB03235B091D01FFF7DBFA666897
:102AF00000EB800000EB8000B600B0FBF6F6FFF7BD
:102B0000D1FA626800EB8000930000EB8000B0FB1C
:102B1000F3F3A7FB03235B0908FB13631B013233A9
:102B2000A7FB03235B0903F0F006FFF7BBFA62681B
:102B300000EB8000930000EB8000B0FBF3F9FFF79F
:102B4000B1FAF8E6003801401F85EB5130B40A4A6B
:102B500000240A4B0A491A6000230A4D0C802A609F
:102B6000094C0A4A0A480B4904600B601360536021
:102B70009360D36030BC70476F12033AB4000020FA
:102B8000C8000020B000002052499D39D00000202C
:102B9000C0000020CC0000202DE9F04F524B83B044
:102BA000D3F800A08346084651461646FEF718F8AB
:102BB0004E4A4F4B04461860B2F90000FEF7C6F8C3
:102BC000314605462046FEF715F901462846FEF730
:102BD00009F8FEF75FFA474C00B2E368009031460F
:102BE00018460193FEF706F96768D4F8088039465D
:102BF0008146FDF7F5FF4146FDF7F2FF3E4A1168B9
:102C0000FDF7F0FF3146FEF7F5F82168FDF7EAFF22
:102C1000494605463846FDF7E3FF49460746404624
:102C2000FDF7DEFF354A814611683046FEF7E2F8CF
:102C3000019B1946FDF7D6FF314A019011682846DD
:102C4000FDF7D0FF064601462846FEF787F93146D4
:102C500080464846FEF782F906460098FEF776F869
:102C600001465846FDF7BCFF014683464046FEF745
:102C7000C1F8FEF70FFA009A1C49104402B20A800C
:102C8000304659460092FEF7B5F85146FDF7AAFFC7
:102C9000154B414618602846FEF7ACF80146284619
:102CA000FDF79EFF414620603846FEF7A3F8014637
:102CB0003846FDF795FF314660602846FEF79AF8E2
:102CC00001464846FDF78CFF3146A0603846FEF7C6
:102CD00091F8019B01461846FDF782FF009AE060DB
:102CE000104603B0BDE8F08FCC000020C8000020E3
:102CF000B8000020D0000020B4000020B000002068
:102D0000C0000020D0B400260027064B0024C3E9F1
:102D10000067002304480549054A04800B601360DE
:102D2000D0BC7047E0000020F80000200001002027
:102D3000FC0000204FF080432DE9F0470446084690
:102D40009F6ADE6AFEF702F801462046FDF748FF5B
:102D5000FDF7C2FB0446701C07FB0000334B0D4619
:102D6000A3FB0030400DFDF7EDFFFDF7B5FBDFF8ED
:102D7000D0A08046DAF800008946FDF7ADFB224678
:102D800006460F462B4640464946FDF7FDFB0246E8
:102D90000B4630463946FDF741FAFDF7CDFE244E8D
:102DA0000746D6E90023CAF8000029462046FDF769
:102DB00033FA00220023FDF7E7FB42464B46FDF7BE
:102DC0000DFD22462B46FDF729FA804689463846F6
:102DD0000021FEF70FF8FDF77FFB02460B46404649
:102DE0004946FDF71BFA0022124BFDF7CDFB80464A
:102DF0008946FDF779FE002287B200234046494606
:102E0000FDF734FE38B90C4A0C4B1070C6E900458A
:102E10001F80BDE8F08701217F42074A074BBFB200
:102E20001170C6E900451F80BDE8F087819F5E16DE
:102E3000E000002000001440F6000020F400002014
:102E4000FC000020012208B54FF480711048FEF705
:102E500005FB104A00BF013AFCD14FF480710C48C9
:102E6000FEF7FCFA0B4B00BF013BFCD101224FF4F3
:102E700080710748FEF7F2FA064A00BF013AFCD11A
:102E80004FF48071BDE808400148FEF7E7BA00BF83
:102E9000000C014040420F0070B501244FF0FF3696
:102EA00086B00F4D05AA23460092CDE9014628467B
:102EB0004522D021FEF78CFC0DF11502234600922D
:102EC000CDE9014628464622D021FEF781FC9DF837
:102ED00014309DF8150040EA032000B206B070BD22
:102EE00008010020000000002DE9F04701244FF008
:102EF000FF3686B0564D0DF114090DF11507CDE9D9
:102F0000014623462846CDF800903B22D021FEF70B
:102F10005FFCCDE90146234600973C222846D0219C
:102F2000FEF756FC9DF814309DF8150040EA03208A
:102F300000B2FDF7BFFA02460B46FDF76FF9FDF749
:102F4000FBFD4449FEF70AF8CDE9014680462346D9
:102F5000CDF8009028463D22D021FEF739FCCDE97E
:102F60000146009723463E222846D021FEF730FC3A
:102F70009DF814309DF8150040EA032000B2FDF7DB
:102F800099FA02460B46FDF749F9FDF7D5FD31499F
:102F9000FDF7E4FF8246CDE901462346CDF80090D7
:102FA00028463F22D021FEF713FC4022CDE90146FE
:102FB000009723462846D021FEF70AFC9DF81430DE
:102FC0009DF815405146504644EA0324FDF712FF90
:102FD000414605464046FDF70DFF01462846FDF7F0
:102FE00001FEFDF779FA00F0EFFC24B20646204618
:102FF0000F46FDF75FFA02460B46FDF70FF9FDF7A6
:103000009BFD1449FDF7AAFFFDF766FA02460B4641
:103010003046394600F0D6FC01F100431946002243
:103020000D4BFDF7B1FA08A3D3E90023FDF7D6FB5A
:1030300000220A4BFDF7F2F8FDF77EFD06B0BDE871
:10304000F08700BFAFF300801F85EB51B81E094029
:103050000801002000FEFF460080664000805640C8
:1030600070B506460846FDF771FE0F49FDF7B8FD3D
:103070000E49FDF773FFFDF72FFA09A3D3E90023EB
:10308000FDF782FA044630460D46FDF725FA024662
:103090000B4620462946FDF7C1F8FDF74DFD70BDF2
:1030A000FCA9F1D24D62503F0080A14200000343D1
:1030B00008B5FDF74BFE0349FDF792FD0249FDF708
:1030C0004DFF08BD0080A1420000034338B50D4606
:1030D0000749FDF78FFE074904462846FDF78AFE9B
:1030E00001462046FDF77EFDFDF7D4FF40B238BD16
:1030F000CDCCCC3D6666663F38B503680446B3F177
:10310000804F36D0264A93423CD0264A934200D084
:1031100038BD254C2068FDF7BDFF01B26068FFF7A0
:103120009FFF237CA1680133DBB2282B60602374EE
:10313000E1602FD91D4AB4F91230D81782FB03235E
:10314000C0EB231000B2FDF701FE0546184B2068C6
:103150001D60FDF79FFF00B2FFF7AAFF154A014669
:103160002846FFF719FD0023134A23741070638269
:1031700038BD124B9620197800F0DEF92368084A12
:103180009342C2D10C4B002093F90010FFF7D2FDFF
:103190002368BAE7FFF79AFF638A1844608238BD54
:1031A0000008004000140040940000206766666636
:1031B000C40000200AD7233DDC010020F6000020D7
:1031C00030B54FF480330125092102244FF4501209
:1031D00091B006A8CDE906530E9308910D940F9275
:1031E000FEF7A8FC00B1FEE703460F22014601A846
:1031F000CDE90243CDE904330192FEF783FE044694
:1032000000B1FEE7FEF738FF4FF47A73B0FBF3F03E
:10321000FEF70AF80420FEF71FF8224621464FF079
:10322000FF30FDF7BFFF11B030BD00BF80B58CB0DF
:10323000FDF778FFFFF7C4FF00229E4B48F20E0116
:103240009869012640F0200098619C699A4804F032
:1032500020040094009C9C6944F004049C61144682
:103260009D6905F004050195019D9D6945F00805DE
:103270009D619B69022503F008030293029BFEF700
:10328000EDF822464FF238118C48FEF7E7F848F285
:103290000E0305A98848CDE90536CDE90745FDF7B8
:1032A000EDFF4FF2381305A9844808950593CDE941
:1032B0000664FDF7E3FF4FF48042814B814D824964
:1032C0001846C3E90244C3E90544C3E90744C3E916
:1032D00000511A61FEF7F0F900B1FEE702464FF423
:1032E000E1300C25794B7A4958601846C3E902222F
:1032F0001A61C3E9062219605D61FFF7A9FA034666
:1033000000B1FEE7734C744A2046C4E90133C4E9B6
:103310000333A3612260FEF75DFF034600B1FEE7C1
:1033200003A92046CDE90333FFF768FA00B1FEE7B1
:103330006023CDE906000990042205A920460593E3
:10334000FEF7C4FF00B1FEE7082205A92046FEF7FC
:10335000BDFF00B1FEE72A4605A92046FEF7B6FFED
:10336000054600B1FEE7204600F05EFA4FF08041CE
:10337000EF2240F2E733594C20462160A5602561D9
:10338000A5616260E360FEF79DFE00B1FEE74FF4C9
:10339000805305A920460593FFF7BCF8034600B10A
:1033A000FEE7204603A9CDE90333FFF727FA00B172
:1033B000FEE7002342F20F71EF27494C494A2046AD
:1033C000C4E90021A3602361A361E760FEF77AFEF0
:1033D00000B1FEE74FF4805305A920460593FFF79F
:1033E00099F8034600B1FEE703A92046CDE903336F
:1033F000FFF704FA034600B1FEE740F2E7313A4E28
:103400003A4A3046C6E90173B361F1603260FEF7B3
:1034100059FE034600B1FEE705A93046CDE9053364
:10342000FFF7ECF9034600B1FEE76321304D314A66
:103430002846C5E90237AB6169602A60FEF742FEA3
:10344000034600B1FEE705A92846CDE90533FFF79D
:10345000D5F900B1FEE7FFF755FC00F053F8FFF790
:10346000F1FCFFF741FD244FDFF894807860F860AD
:10347000FDF710FEA8F80000FFF768FB1748FEF7FD
:103480009DFE2046FEF79AFE3046FEF797FE284640
:10349000FEF794FE0120FDF763FE0022174B1A6031
:1034A000FFF7FAFCFDF752FC3860FFF71DFDB8602E
:1034B000F6E700BF0010024000080140000C014088
:1034C0000801002000540040A0860100E001002017
:1034D000003801409C0100200004004060020020F0
:1034E0005C01002000080040200200200010004085
:1034F000A00200200014004094000020C40000201E
:10350000C800002010B5094C002220462021FDF7FC
:10351000A5FF00224FF480412046FDF79FFF0023C6
:103520000349044A0B80138010BD00BF000C01400A
:10353000EC000020040100202DE9F041384C394D09
:10354000394F23882A88B7F9000001339042884612
:10355000238009D02E88B6B2782E31DD7826F92066
:103560004FF08043D8622E80B8F1000F40D0002287
:103570004FF480512D48FDF771FF01224FF40041B7
:103580002B48FDF76BFF01224FF400512748FDF750
:1035900065FF012208212548FDF760FF0022082170
:1035A0002248FDF75BFF00224FF400511F48FDF752
:1035B00055FF23882A8801333A802380BDE8F081B3
:1035C000002ED0D03046FCF775FF11A3D3E90023BD
:1035D000FCF7DAFF02460B460FA1D1E90001FDF727
:1035E000FDF80022134BFCF717FEFDF77DFAB7E755
:1035F00001224FF480510D48FDF730FF42464FF451
:1036000000410B48FDF72AFFBDE700BFAFF3008084
:10361000A4703D0AD7A30A4000000000006AF840E9
:10362000EC000020F4000020F8000020000C014015
:10363000000801400000F03F254B00B59A6983B0B7
:1036400042F001029A619A69032002F0010200929D
:10365000009ADA6942F08052DA61DB6903F0805344
:103660000193019BFDF78CFD00226FF00B001146CA
:10367000FDF798FD00226FF00A001146FDF792FD5C
:1036800000226FF009001146FDF78CFD00226FF05B
:1036900004001146FDF786FD00226FF0030011467D
:1036A000FDF780FD00226FF001001146FDF77AFD65
:1036B00000224FF0FF301146FDF774FD054A5368B4
:1036C00023F0E06343F00073536003B05DF804FB44
:1036D000001002400000014002680E4B9A4200D0E8
:1036E000704710B512220323C02486B002A90A48ED
:1036F000CDE902420593FDF7C1FD084BDA6942F4BA
:103700000012DA61DB6903F400130193019B06B038
:1037100010BD00BF00540040000C014000100240EA
:1037200010B5036884B0B3F1804F1FD02F4A934285
:1037300032D02F4A934244D02E4A934201D004B053
:1037400010BD00222C4B1146DC69372044F02004C8
:10375000DC61DB6903F020030393039BFDF722FD8B
:10376000372004B0BDE81040FDF752BD002203F53C
:103770000433DC69114644F00104DC61DB691C2080
:1037800003F001030093009BFDF70CFD1C2004B027
:10379000BDE81040FDF73CBD0022174B1146DC6927
:1037A0001E2044F00404DC61DB6903F00403019390
:1037B000019BFDF7F7FC1E2004B0BDE81040FDF7AB
:1037C00027BD00220C4B1146DC69362044F0100462
:1037D000DC61DB6903F010030293029BFDF7E2FC5E
:1037E000362004B0BDE81040FDF712BD00080040CF
:1037F0000010004000140040001002400268094B15
:103800009A4200D0704703F50333DA6982B042F080
:103810000202DA61DB6903F002030193019B02B04B
:10382000704700BF0004004002680C4B9A4200D071
:10383000704710B58023022484B069460848CDE95A
:1038400000340394FDF71AFD0323694605480194EB
:1038500003940093FDF712FD04B010BD0004004076
:1038600000080140000C01400268144B9A4200D04D
:1038700070474FF4007130B50225032403F5584317
:103880009A6987B042F480429A619B690C4803F4BC
:1038900080430291019302A9019B03950594FDF7D2
:1038A000EDFC00234FF4806202A90548CDE9022314
:1038B0000493FDF7E3FC07B030BD00BF00380140C2
:1038C00000080140704700BFFEE700BFFEE700BFF1
:1038D000FEE700BFFEE700BF704700BF704700BFB4
:1038E000704700BF08B5FDF729FCBDE80840FDF7AB
:1038F000C1BC00BF0148FEF7D7BE00BF6002002078
:103900000148FEF7D1BE00BF5C0100200148FEF770
:10391000CBBE00BF200200200148FEF7C5BE00BF9D
:10392000A002002030B44FF000604FF41F050024C7
:103930000E4B0F4A196841F00101196059680A409D
:103940005A601A680B4922F0847222F480321A609D
:103950001A6822F480221A605A6822F4FE025A6021
:103960009D60DC62886030BC704700BF0010024080
:103970000000FFF800ED00E0002103E00B4B5B5876
:10398000435004310A480B4B42189A42F6D30A4A74
:1039900002E0002342F8043B084B9A42F9D3FFF7B8
:1039A000C1FF00F0A7FBFFF741FC7047E0410008B2
:1039B000000000207400002078000020E0020020B9
:1039C000FEE7000000F060B82DE9F04F8BB0044630
:1039D0000D4600F033F9294B064693F900A00F4637
:1039E000BAF1FF3F12D022462B4620462946FDF76A
:1039F00065F8834650B94FF000084FF000092046A3
:103A0000294642464B46FDF731F820B93046394643
:103A10000BB0BDE8F08F0122194BCDF820B0CDE9F5
:103A20000445CDE90245CDE90023BAF1000F17D0D6
:103A300042464B4640464946FCF7D0FEBAF1020FDB
:103A4000CDE906010ED100F04FFB21230360089B56
:103A500073B9DDE90667304639460BB0BDE8F08F33
:103A6000CDE90689684600F03DFB0028EFD1EAE782
:103A700000F03AFB089B0360EBE700BF0C0000205E
:103A800090410008000000002DE9F84F5442144313
:103A900023F00048684E48EAD474B44284460F4686
:103AA0001FD84442044321F0004A4AEAD474B44285
:103AB0008B4616D803F1404404F5801414439E4607
:103AC0003DD09C1704F0020444EAD1745AEA000184
:103AD0000FD1022C50D0032C3CD145A1D1E90001DB
:103AE00005E01046194662463B46FCF797FBBDE8E9
:103AF000F88F58EA020126D0B0452DD0B24522D029
:103B0000AAEB08084FEA2858B8F13C0F38DC002B24
:103B10003ADA18F13C0F37DA00200021012C49D0A5
:103B2000022C3AD0002CE2D033A3D3E90023FCF7D7
:103B300073FB33A3D3E90023FCF76EFBD7E7BDE8A3
:103B4000F84F00F03DB9BBF1000F11DB2EA1D1E918
:103B50000001CCE73946CAE7C2452FD0022C0BD072
:103B6000032CBAD0012C4FF0000031D00021BEE769
:103B700027A1D1E90001BAE721A1D1E90001B6E707
:103B800021A1D1E90001C9E760463946FCF726FECC
:103B900000F0A4FA00F014F9C0E717A3D3E900235A
:103BA000FCF73AFB02460B4615A1D1E90001FCF7F0
:103BB00033FB9CE701F10043194698E7022C12D031
:103BC000032C0CD0012C06D013A1D1E900018EE703
:103BD0004FF000418BE712A1D1E9000187E712A164
:103BE000D1E9000183E712A1D1E900017FE700BF1D
:103BF000182D4454FB2109C0075C143326A6A13CB0
:103C0000182D4454FB210940182D4454FB21F93F41
:103C1000182D4454FB21F9BF182D4454FB21E93FD2
:103C2000182D4454FB21E9BFD221337F7CD902C037
:103C3000D221337F7CD902400000F07F5F4A2DE91A
:103C4000F0418A430D46074600F0948000290B4658
:103C50000446064654DD0F1500F0A780C3F3130396
:103C6000A7F2FF3743F48013F20FF80702EB430388
:103C70004FEA460503D5ED0F05EB4303B5000026DB
:103C80001622B4464FF400117F100CEB010098424D
:103C90004FEAD5744FEA450503DC1B1A00EB010C13
:103CA0000E44013A04EB43034FEA5101EDD11046B3
:103CB000964620244FF0004209E052D05B00013CC0
:103CC00003EBD5734FEA52024FEA450537D06345FF
:103CD00002EB0E01F1DD002901EB020E0ADBE046EA
:103CE000A3EB0C03A94288BF03F1FF33C4466D1A4E
:103CF0001044E3E7BEF1000FF1DB0CF10108EFE740
:103D000021F00042024329D0002945D10146CA0AC8
:103D1000153B4905002AFAD012F4801001D048E082
:103D200030465200D40200F10106F9D5C6F1200454
:103D300001FA06F6E1401F1A41EA02038EE72B431F
:103D400024D14408731003F17F53F20703F50013E5
:103D500048BF44F0004403EB075127463846BDE80E
:103D6000F081A942AAD8002901EB020EC2DB9846D5
:103D70000023BBE702460B46FCF706FC3A462B46FF
:103D8000FCF74CFA07463846BDE8F081411C16BFE7
:103D9000421C01365408D5E70246FCF73DFA0246BC
:103DA0000B46FCF71BFD0746D8E71A4621463B4663
:103DB000B2E70E4620244FF0FF30BBE70000F07F53
:103DC0002DE9F84FB84B21F000469E420D468A4639
:103DD00004460EDDB54B9E4200F3B08000F0AB8090
:103DE000B34BB449B448BAF1000FC8BF1946BDE897
:103DF000F88FB24B9E4200F3B980A3F1DE739E426E
:103E000040F3A4804FF0FF3B22462B462046294634
:103E1000FCF7BAFB02460B4680468946FCF7B4FB2A
:103E200089A3D3E9002306460F46FCF7ADFB88A320
:103E3000D3E90023FCF7F2F932463B46FCF7A4FB3A
:103E400085A3D3E90023FCF7E9F932463B46FCF7AA
:103E50009BFB83A3D3E90023FCF7E0F932463B4602
:103E6000FCF792FB80A3D3E90023FCF7D7F9324695
:103E70003B46FCF789FB7EA3D3E90023FCF7CEF990
:103E800042464B46FCF780FB7BA3D3E900238046E8
:103E9000894630463946FCF777FB79A3D3E90023FE
:103EA000FCF7BAF932463B46FCF76EFB76A3D3E942
:103EB0000023FCF7B1F932463B46FCF765FB74A3DF
:103EC000D3E90023FCF7A8F932463B46FCF75CFB3C
:103ED00071A3D3E90023FCF79FF932463B46FCF778
:103EE00053FB02460B4640464946FCF797F92246EB
:103EF0002B46FCF749FBBBF1FF3F02460B465CD06B
:103F00006F4B4FEACB0B5B44D3E90023FCF784F9FA
:103F100022462B46FCF780F96A4E0246B3440B4614
:103F2000DBE90001FCF778F9BAF1000F0CDA01F1D6
:103F30000041BDE8F88F00283FF452AF22462046EA
:103F40002B462946FCF76AF9BDE8F88F54A3D3E95C
:103F50000023FCF763F900225B4BFCF7A5FD00286A
:103F60003FF450AF20462946BDE8F88F00F0B6F880
:103F7000564B04469E420D4625DCA3F550239E4237
:103F80004ADC02460B46FCF749F900224E4BFCF78F
:103F900043F9002206460F464FF08043204629464B
:103FA000FCF73CF902460B4630463946FCF716FC56
:103FB0004FF0000B04460D4626E720462946FCF745
:103FC0002BF9BDE8F88F424B9E421ADC0022414B90
:103FD000FCF722F9002206460F463E4B20462946B2
:103FE000FCF7D2FA0022384BFCF718F902460B46D0
:103FF00030463946FCF7F2FB4FF0020B04460D4603
:1040000002E702460B4600203349FCF7E7FB4FF07E
:10401000030B04460D46F7E600222B4BFCF7FCF899
:10402000002206460F46284B20462946FCF7F6F8A4
:1040300002460B4630463946FCF7D0FB4FF0010BE9
:1040400004460D46E0E600BF11DA22E33AAD903FA8
:10405000EB0D76244B7BA93F513DD0A0660DB13FBF
:104060006E204CC5CD45B73FFF8300922449C23F27
:104070000D5555555555D53F2F6C6A2C44B4A2BFEC
:104080009AFDDE522DDEAD3F6D9A74AFF2B0B33FB4
:10409000711623FEC671BC3FC4EB98999999C93F2C
:1040A0009C7500883CE4377EFFFF0F440000F07FE2
:1040B000FB21F93FFB21F9BF182D4454FFFFDB3FE3
:1040C000B8410008984100080000F03FFFFFF23FB0
:1040D000FF7F03400000F83F0000F0BF21F00043E5
:1040E0001946704700207047014B1868704700BFA1
:1040F0001000002070B500250C4E0D4CA41BA41020
:10410000A54209D100F01AF800250A4E0A4CA41B5A
:10411000A410A54205D170BD56F825309847013549
:10412000EEE756F8253098470135F2E7D841000808
:10413000D8410008D8410008DC410008F8B500BFAC
:10414000F8BC08BC9E467047F8B500BFF8BC08BC78
:044150009E467047D0
:1041580002030405060708090A0B0C0D0E0F1010C0
:104168000102030405060708090A0B0C0D0E0F10BF
:10417800000000000000000001020304060708090F
:104188000000000001020304737172740000000053
:104198004FBB610567ACDD3F182D4454FB21E93F57
:1041A8009BF681D20B73EF3F182D4454FB21F93F46
:1041B800E2652F227F2B7A3C075C143326A6813CCC
:1041C800BDCBF07A8807703C075C143326A6913C77
:0441D800F5010008E5
:0441DC00D101000805
:1041E000010000001000000000366E010100000018
:1041F000140000200000000000000000000000008B
:1042000000000000000000000000000000000000AE
:10421000000000000000000000000000000000009E
:10422000000000000000000000000000000000008E
:10423000000000000000000000000000000000007E
:10424000000000000000000000000000000000006E
:04425000000000006A
:04000005080039793D
:00000001FF
